{"abi":[{"type":"constructor","inputs":[{"name":"_weth","type":"address","internalType":"address"},{"name":"_routers","type":"address[]","internalType":"address[]"}],"stateMutability":"nonpayable"},{"type":"receive","stateMutability":"payable"},{"type":"function","name":"owner","inputs":[],"outputs":[{"name":"","type":"address","internalType":"address"}],"stateMutability":"view"},{"type":"function","name":"rescue","inputs":[{"name":"token","type":"address","internalType":"address"},{"name":"amount","type":"uint256","internalType":"uint256"}],"outputs":[],"stateMutability":"nonpayable"},{"type":"function","name":"setRouter","inputs":[{"name":"router","type":"address","internalType":"address"},{"name":"allowed","type":"bool","internalType":"bool"}],"outputs":[],"stateMutability":"nonpayable"},{"type":"function","name":"setRouters","inputs":[{"name":"routers","type":"address[]","internalType":"address[]"},{"name":"allowed","type":"bool[]","internalType":"bool[]"}],"outputs":[],"stateMutability":"nonpayable"},{"type":"function","name":"sweep","inputs":[{"name":"tokens","type":"address[]","internalType":"address[]"},{"name":"amounts","type":"uint256[]","internalType":"uint256[]"},{"name":"routers","type":"address[]","internalType":"address[]"},{"name":"swapDatas","type":"bytes[]","internalType":"bytes[]"}],"outputs":[],"stateMutability":"nonpayable"},{"type":"function","name":"transferOwnership","inputs":[{"name":"newOwner","type":"address","internalType":"address"}],"outputs":[],"stateMutability":"nonpayable"},{"type":"function","name":"weth","inputs":[],"outputs":[{"name":"","type":"address","internalType":"address"}],"stateMutability":"view"},{"type":"function","name":"whitelistedRouters","inputs":[{"name":"","type":"address","internalType":"address"}],"outputs":[{"name":"","type":"bool","internalType":"bool"}],"stateMutability":"view"},{"type":"event","name":"Rescued","inputs":[{"name":"token","type":"address","indexed":true,"internalType":"address"},{"name":"amount","type":"uint256","indexed":false,"internalType":"uint256"}],"anonymous":false},{"type":"event","name":"RouterWhitelisted","inputs":[{"name":"router","type":"address","indexed":true,"internalType":"address"},{"name":"allowed","type":"bool","indexed":false,"internalType":"bool"}],"anonymous":false},{"type":"event","name":"Swept","inputs":[{"name":"user","type":"address","indexed":true,"internalType":"address"},{"name":"tokenCount","type":"uint256","indexed":false,"internalType":"uint256"},{"name":"ethReceived","type":"uint256","indexed":false,"internalType":"uint256"}],"anonymous":false}],"bytecode":{"object":"0x60a06040526001805534801562000014575f80fd5b50604051620025fd380380620025fd83398181016040528101906200003a919062000396565b8173ffffffffffffffffffffffffffffffffffffffff1660808173ffffffffffffffffffffffffffffffffffffffff1681525050335f806101000a81548173ffffffffffffffffffffffffffffffffffffffff021916908373ffffffffffffffffffffffffffffffffffffffff1602179055505f5b8151811015620001af57600160025f848481518110620000d457620000d3620003fa565b5b602002602001015173ffffffffffffffffffffffffffffffffffffffff1673ffffffffffffffffffffffffffffffffffffffff1681526020019081526020015f205f6101000a81548160ff021916908315150217905550818181518110620001415762000140620003fa565b5b602002602001015173ffffffffffffffffffffffffffffffffffffffff167fcf2b36bf2aa8353623d06f58eab9577176d9214e588362c013a7eeb0586463f1600160405162000191919062000443565b60405180910390a28080620001a69062000494565b915050620000af565b505050620004e0565b5f604051905090565b5f80fd5b5f80fd5b5f73ffffffffffffffffffffffffffffffffffffffff82169050919050565b5f620001f482620001c9565b9050919050565b6200020681620001e8565b811462000211575f80fd5b50565b5f815190506200022481620001fb565b92915050565b5f80fd5b5f601f19601f8301169050919050565b7f4e487b71000000000000000000000000000000000000000000000000000000005f52604160045260245ffd5b62000276826200022e565b810181811067ffffffffffffffff821117156200029857620002976200023e565b5b80604052505050565b5f620002ac620001b8565b9050620002ba82826200026b565b919050565b5f67ffffffffffffffff821115620002dc57620002db6200023e565b5b602082029050602081019050919050565b5f80fd5b5f620003076200030184620002bf565b620002a1565b905080838252602082019050602084028301858111156200032d576200032c620002ed565b5b835b818110156200035a578062000345888262000214565b8452602084019350506020810190506200032f565b5050509392505050565b5f82601f8301126200037b576200037a6200022a565b5b81516200038d848260208601620002f1565b91505092915050565b5f8060408385031215620003af57620003ae620001c1565b5b5f620003be8582860162000214565b925050602083015167ffffffffffffffff811115620003e257620003e1620001c5565b5b620003f08582860162000364565b9150509250929050565b7f4e487b71000000000000000000000000000000000000000000000000000000005f52603260045260245ffd5b5f8115159050919050565b6200043d8162000427565b82525050565b5f602082019050620004585f83018462000432565b92915050565b7f4e487b71000000000000000000000000000000000000000000000000000000005f52601160045260245ffd5b5f819050919050565b5f620004a0826200048b565b91507fffffffffffffffffffffffffffffffffffffffffffffffffffffffffffffffff8203620004d557620004d46200045e565b5b600182019050919050565b6080516120f6620005075f395f81816106b00152818161075201526108f501526120f65ff3fe60806040526004361061007e575f3560e01c80637a4e4ecf1161004d5780637a4e4ecf1461013f5780638da5cb5b14610167578063c3c6467414610191578063f2fde38b146101b957610085565b80630f874a1314610089578063257a164f146100c55780633fc8cef3146100ed578063597a97431461011757610085565b3661008557005b5f80fd5b348015610094575f80fd5b506100af60048036038101906100aa9190611422565b6101e1565b6040516100bc9190611467565b60405180910390f35b3480156100d0575f80fd5b506100eb60048036038101906100e6919061158b565b6101fe565b005b3480156100f8575f80fd5b506101016108f3565b60405161010e919061167e565b60405180910390f35b348015610122575f80fd5b5061013d600480360381019061013891906116ec565b610917565b005b34801561014a575f80fd5b506101656004803603810190610160919061179d565b610b51565b005b348015610172575f80fd5b5061017b610d5c565b604051610188919061167e565b60405180910390f35b34801561019c575f80fd5b506101b760048036038101906101b29190611805565b610d7f565b005b3480156101c4575f80fd5b506101df60048036038101906101da9190611422565b610eb2565b005b6002602052805f5260405f205f915054906101000a900460ff1681565b6001805414610242576040517f08c379a00000000000000000000000000000000000000000000000000000000081526004016102399061189d565b60405180910390fd5b6002600181905550858590508888905014801561026457508383905086869050145b801561027557508181905084849050145b6102b4576040517f08c379a00000000000000000000000000000000000000000000000000000000081526004016102ab90611905565b60405180910390fd5b60328888905011156102fb576040517f08c379a00000000000000000000000000000000000000000000000000000000081526004016102f29061196d565b60405180910390fd5b5f5b888890508110156106ac5760025f86868481811061031e5761031d61198b565b5b90506020020160208101906103339190611422565b73ffffffffffffffffffffffffffffffffffffffff1673ffffffffffffffffffffffffffffffffffffffff1681526020019081526020015f205f9054906101000a900460ff166103b8576040517f08c379a00000000000000000000000000000000000000000000000000000000081526004016103af90611a02565b60405180910390fd5b6104048989838181106103ce576103cd61198b565b5b90506020020160208101906103e39190611422565b33308a8a868181106103f8576103f761198b565b5b90506020020135610fef565b61047689898381811061041a5761041961198b565b5b905060200201602081019061042f9190611422565b8686848181106104425761044161198b565b5b90506020020160208101906104579190611422565b89898581811061046a5761046961198b565b5b90506020020135611141565b5f85858381811061048a5761048961198b565b5b905060200201602081019061049f9190611422565b73ffffffffffffffffffffffffffffffffffffffff168484848181106104c8576104c761198b565b5b90506020028101906104da9190611a2c565b6040516104e8929190611aca565b5f604051808303815f865af19150503d805f8114610521576040519150601f19603f3d011682016040523d82523d5f602084013e610526565b606091505b505090508061056a576040517f08c379a000000000000000000000000000000000000000000000000000000000815260040161056190611b2c565b60405180910390fd5b5f8a8a8481811061057e5761057d61198b565b5b90506020020160208101906105939190611422565b73ffffffffffffffffffffffffffffffffffffffff1663dd62ed3e308989878181106105c2576105c161198b565b5b90506020020160208101906105d79190611422565b6040518363ffffffff1660e01b81526004016105f4929190611b4a565b602060405180830381865afa15801561060f573d5f803e3d5ffd5b505050506040513d601f19601f820116820180604052508101906106339190611b85565b90505f811115610697576106968b8b858181106106535761065261198b565b5b90506020020160208101906106689190611422565b88888681811061067b5761067a61198b565b5b90506020020160208101906106909190611422565b5f611141565b5b505080806106a490611bdd565b9150506102fd565b505f7f000000000000000000000000000000000000000000000000000000000000000073ffffffffffffffffffffffffffffffffffffffff166370a08231306040518263ffffffff1660e01b8152600401610707919061167e565b602060405180830381865afa158015610722573d5f803e3d5ffd5b505050506040513d601f19601f820116820180604052508101906107469190611b85565b90505f8111156107d7577f000000000000000000000000000000000000000000000000000000000000000073ffffffffffffffffffffffffffffffffffffffff16632e1a7d4d826040518263ffffffff1660e01b81526004016107a99190611c33565b5f604051808303815f87803b1580156107c0575f80fd5b505af11580156107d2573d5f803e3d5ffd5b505050505b5f4790505f81111561088d575f3373ffffffffffffffffffffffffffffffffffffffff168260405161080890611c6f565b5f6040518083038185875af1925050503d805f8114610842576040519150601f19603f3d011682016040523d82523d5f602084013e610847565b606091505b505090508061088b576040517f08c379a000000000000000000000000000000000000000000000000000000000815260040161088290611ccd565b60405180910390fd5b505b3373ffffffffffffffffffffffffffffffffffffffff167f8a89918ff5a1192aacedc279940d66eec9c0a1c2c6490aea91350ff42981c1a98b8b9050836040516108d8929190611ceb565b60405180910390a25050600180819055505050505050505050565b7f000000000000000000000000000000000000000000000000000000000000000081565b5f8054906101000a900473ffffffffffffffffffffffffffffffffffffffff1673ffffffffffffffffffffffffffffffffffffffff163373ffffffffffffffffffffffffffffffffffffffff16146109a4576040517f08c379a000000000000000000000000000000000000000000000000000000000815260040161099b90611d5c565b60405180910390fd5b8181905084849050146109ec576040517f08c379a00000000000000000000000000000000000000000000000000000000081526004016109e390611905565b60405180910390fd5b5f5b84849050811015610b4a57828282818110610a0c57610a0b61198b565b5b9050602002016020810190610a219190611d7a565b60025f878785818110610a3757610a3661198b565b5b9050602002016020810190610a4c9190611422565b73ffffffffffffffffffffffffffffffffffffffff1673ffffffffffffffffffffffffffffffffffffffff1681526020019081526020015f205f6101000a81548160ff021916908315150217905550848482818110610aae57610aad61198b565b5b9050602002016020810190610ac39190611422565b73ffffffffffffffffffffffffffffffffffffffff167fcf2b36bf2aa8353623d06f58eab9577176d9214e588362c013a7eeb0586463f1848484818110610b0d57610b0c61198b565b5b9050602002016020810190610b229190611d7a565b604051610b2f9190611467565b60405180910390a28080610b4290611bdd565b9150506109ee565b5050505050565b5f8054906101000a900473ffffffffffffffffffffffffffffffffffffffff1673ffffffffffffffffffffffffffffffffffffffff163373ffffffffffffffffffffffffffffffffffffffff1614610bde576040517f08c379a0000000000000000000000000000000000000000000000000000000008152600401610bd590611d5c565b60405180910390fd5b5f73ffffffffffffffffffffffffffffffffffffffff168273ffffffffffffffffffffffffffffffffffffffff1603610cdf575f805f9054906101000a900473ffffffffffffffffffffffffffffffffffffffff1673ffffffffffffffffffffffffffffffffffffffff1682604051610c5690611c6f565b5f6040518083038185875af1925050503d805f8114610c90576040519150601f19603f3d011682016040523d82523d5f602084013e610c95565b606091505b5050905080610cd9576040517f08c379a0000000000000000000000000000000000000000000000000000000008152600401610cd090611def565b60405180910390fd5b50610d0a565b610d09825f8054906101000a900473ffffffffffffffffffffffffffffffffffffffff1683611290565b5b8173ffffffffffffffffffffffffffffffffffffffff167f8aec0ce3dadffacf4b7a963e0fed1ff2e6151b4c95d4a65acafa9d129963040282604051610d509190611c33565b60405180910390a25050565b5f8054906101000a900473ffffffffffffffffffffffffffffffffffffffff1681565b5f8054906101000a900473ffffffffffffffffffffffffffffffffffffffff1673ffffffffffffffffffffffffffffffffffffffff163373ffffffffffffffffffffffffffffffffffffffff1614610e0c576040517f08c379a0000000000000000000000000000000000000000000000000000000008152600401610e0390611d5c565b60405180910390fd5b8060025f8473ffffffffffffffffffffffffffffffffffffffff1673ffffffffffffffffffffffffffffffffffffffff1681526020019081526020015f205f6101000a81548160ff0219169083151502179055508173ffffffffffffffffffffffffffffffffffffffff167fcf2b36bf2aa8353623d06f58eab9577176d9214e588362c013a7eeb0586463f182604051610ea69190611467565b60405180910390a25050565b5f8054906101000a900473ffffffffffffffffffffffffffffffffffffffff1673ffffffffffffffffffffffffffffffffffffffff163373ffffffffffffffffffffffffffffffffffffffff1614610f3f576040517f08c379a0000000000000000000000000000000000000000000000000000000008152600401610f3690611d5c565b60405180910390fd5b5f73ffffffffffffffffffffffffffffffffffffffff168173ffffffffffffffffffffffffffffffffffffffff1603610fad576040517f08c379a0000000000000000000000000000000000000000000000000000000008152600401610fa490611e57565b60405180910390fd5b805f806101000a81548173ffffffffffffffffffffffffffffffffffffffff021916908373ffffffffffffffffffffffffffffffffffffffff16021790555050565b5f808573ffffffffffffffffffffffffffffffffffffffff166323b872dd60e01b86868660405160240161102593929190611e75565b604051602081830303815290604052907bffffffffffffffffffffffffffffffffffffffffffffffffffffffff19166020820180517bffffffffffffffffffffffffffffffffffffffffffffffffffffffff838183161783525050505060405161108f9190611f0c565b5f604051808303815f865af19150503d805f81146110c8576040519150601f19603f3d011682016040523d82523d5f602084013e6110cd565b606091505b50915091508180156110fa57505f815114806110f95750808060200190518101906110f89190611f36565b5b5b611139576040517f08c379a000000000000000000000000000000000000000000000000000000000815260040161113090611fab565b60405180910390fd5b505050505050565b5f808473ffffffffffffffffffffffffffffffffffffffff1663095ea7b360e01b8585604051602401611175929190611fc9565b604051602081830303815290604052907bffffffffffffffffffffffffffffffffffffffffffffffffffffffff19166020820180517bffffffffffffffffffffffffffffffffffffffffffffffffffffffff83818316178352505050506040516111df9190611f0c565b5f604051808303815f865af19150503d805f8114611218576040519150601f19603f3d011682016040523d82523d5f602084013e61121d565b606091505b509150915081801561124a57505f815114806112495750808060200190518101906112489190611f36565b5b5b611289576040517f08c379a00000000000000000000000000000000000000000000000000000000081526004016112809061203a565b60405180910390fd5b5050505050565b5f808473ffffffffffffffffffffffffffffffffffffffff1663a9059cbb85856040516024016112c1929190611fc9565b6040516020818303038152906040529060e01b6020820180517bffffffffffffffffffffffffffffffffffffffffffffffffffffffff838183161783525050505060405161130f9190611f0c565b5f604051808303815f865af19150503d805f8114611348576040519150601f19603f3d011682016040523d82523d5f602084013e61134d565b606091505b509150915081801561137a57505f815114806113795750808060200190518101906113789190611f36565b5b5b6113b9576040517f08c379a00000000000000000000000000000000000000000000000000000000081526004016113b0906120a2565b60405180910390fd5b5050505050565b5f80fd5b5f80fd5b5f73ffffffffffffffffffffffffffffffffffffffff82169050919050565b5f6113f1826113c8565b9050919050565b611401816113e7565b811461140b575f80fd5b50565b5f8135905061141c816113f8565b92915050565b5f60208284031215611437576114366113c0565b5b5f6114448482850161140e565b91505092915050565b5f8115159050919050565b6114618161144d565b82525050565b5f60208201905061147a5f830184611458565b92915050565b5f80fd5b5f80fd5b5f80fd5b5f8083601f8401126114a1576114a0611480565b5b8235905067ffffffffffffffff8111156114be576114bd611484565b5b6020830191508360208202830111156114da576114d9611488565b5b9250929050565b5f8083601f8401126114f6576114f5611480565b5b8235905067ffffffffffffffff81111561151357611512611484565b5b60208301915083602082028301111561152f5761152e611488565b5b9250929050565b5f8083601f84011261154b5761154a611480565b5b8235905067ffffffffffffffff81111561156857611567611484565b5b60208301915083602082028301111561158457611583611488565b5b9250929050565b5f805f805f805f806080898b0312156115a7576115a66113c0565b5b5f89013567ffffffffffffffff8111156115c4576115c36113c4565b5b6115d08b828c0161148c565b9850985050602089013567ffffffffffffffff8111156115f3576115f26113c4565b5b6115ff8b828c016114e1565b9650965050604089013567ffffffffffffffff811115611622576116216113c4565b5b61162e8b828c0161148c565b9450945050606089013567ffffffffffffffff811115611651576116506113c4565b5b61165d8b828c01611536565b92509250509295985092959890939650565b611678816113e7565b82525050565b5f6020820190506116915f83018461166f565b92915050565b5f8083601f8401126116ac576116ab611480565b5b8235905067ffffffffffffffff8111156116c9576116c8611484565b5b6020830191508360208202830111156116e5576116e4611488565b5b9250929050565b5f805f8060408587031215611704576117036113c0565b5b5f85013567ffffffffffffffff811115611721576117206113c4565b5b61172d8782880161148c565b9450945050602085013567ffffffffffffffff8111156117505761174f6113c4565b5b61175c87828801611697565b925092505092959194509250565b5f819050919050565b61177c8161176a565b8114611786575f80fd5b50565b5f8135905061179781611773565b92915050565b5f80604083850312156117b3576117b26113c0565b5b5f6117c08582860161140e565b92505060206117d185828601611789565b9150509250929050565b6117e48161144d565b81146117ee575f80fd5b50565b5f813590506117ff816117db565b92915050565b5f806040838503121561181b5761181a6113c0565b5b5f6118288582860161140e565b9250506020611839858286016117f1565b9150509250929050565b5f82825260208201905092915050565b7f7265656e7472616e7400000000000000000000000000000000000000000000005f82015250565b5f611887600983611843565b915061189282611853565b602082019050919050565b5f6020820190508181035f8301526118b48161187b565b9050919050565b7f6c656e677468206d69736d6174636800000000000000000000000000000000005f82015250565b5f6118ef600f83611843565b91506118fa826118bb565b602082019050919050565b5f6020820190508181035f83015261191c816118e3565b9050919050565b7f746f6f206d616e7920746f6b656e7300000000000000000000000000000000005f82015250565b5f611957600f83611843565b915061196282611923565b602082019050919050565b5f6020820190508181035f8301526119848161194b565b9050919050565b7f4e487b71000000000000000000000000000000000000000000000000000000005f52603260045260245ffd5b7f726f75746572206e6f742077686974656c6973746564000000000000000000005f82015250565b5f6119ec601683611843565b91506119f7826119b8565b602082019050919050565b5f6020820190508181035f830152611a19816119e0565b9050919050565b5f80fd5b5f80fd5b5f80fd5b5f8083356001602003843603038112611a4857611a47611a20565b5b80840192508235915067ffffffffffffffff821115611a6a57611a69611a24565b5b602083019250600182023603831315611a8657611a85611a28565b5b509250929050565b5f81905092915050565b828183375f83830152505050565b5f611ab18385611a8e565b9350611abe838584611a98565b82840190509392505050565b5f611ad6828486611aa6565b91508190509392505050565b7f73776170206661696c65640000000000000000000000000000000000000000005f82015250565b5f611b16600b83611843565b9150611b2182611ae2565b602082019050919050565b5f6020820190508181035f830152611b4381611b0a565b9050919050565b5f604082019050611b5d5f83018561166f565b611b6a602083018461166f565b9392505050565b5f81519050611b7f81611773565b92915050565b5f60208284031215611b9a57611b996113c0565b5b5f611ba784828501611b71565b91505092915050565b7f4e487b71000000000000000000000000000000000000000000000000000000005f52601160045260245ffd5b5f611be78261176a565b91507fffffffffffffffffffffffffffffffffffffffffffffffffffffffffffffffff8203611c1957611c18611bb0565b5b600182019050919050565b611c2d8161176a565b82525050565b5f602082019050611c465f830184611c24565b92915050565b50565b5f611c5a5f83611a8e565b9150611c6582611c4c565b5f82019050919050565b5f611c7982611c4f565b9150819050919050565b7f455448207472616e73666572206661696c6564000000000000000000000000005f82015250565b5f611cb7601383611843565b9150611cc282611c83565b602082019050919050565b5f6020820190508181035f830152611ce481611cab565b9050919050565b5f604082019050611cfe5f830185611c24565b611d0b6020830184611c24565b9392505050565b7f6e6f74206f776e657200000000000000000000000000000000000000000000005f82015250565b5f611d46600983611843565b9150611d5182611d12565b602082019050919050565b5f6020820190508181035f830152611d7381611d3a565b9050919050565b5f60208284031215611d8f57611d8e6113c0565b5b5f611d9c848285016117f1565b91505092915050565b7f45544820726573637565206661696c65640000000000000000000000000000005f82015250565b5f611dd9601183611843565b9150611de482611da5565b602082019050919050565b5f6020820190508181035f830152611e0681611dcd565b9050919050565b7f7a65726f206164647265737300000000000000000000000000000000000000005f82015250565b5f611e41600c83611843565b9150611e4c82611e0d565b602082019050919050565b5f6020820190508181035f830152611e6e81611e35565b9050919050565b5f606082019050611e885f83018661166f565b611e95602083018561166f565b611ea26040830184611c24565b949350505050565b5f81519050919050565b5f5b83811015611ed1578082015181840152602081019050611eb6565b5f8484015250505050565b5f611ee682611eaa565b611ef08185611a8e565b9350611f00818560208601611eb4565b80840191505092915050565b5f611f178284611edc565b915081905092915050565b5f81519050611f30816117db565b92915050565b5f60208284031215611f4b57611f4a6113c0565b5b5f611f5884828501611f22565b91505092915050565b7f7472616e7366657246726f6d206661696c6564000000000000000000000000005f82015250565b5f611f95601383611843565b9150611fa082611f61565b602082019050919050565b5f6020820190508181035f830152611fc281611f89565b9050919050565b5f604082019050611fdc5f83018561166f565b611fe96020830184611c24565b9392505050565b7f617070726f7665206661696c65640000000000000000000000000000000000005f82015250565b5f612024600e83611843565b915061202f82611ff0565b602082019050919050565b5f6020820190508181035f83015261205181612018565b9050919050565b7f7472616e73666572206661696c656400000000000000000000000000000000005f82015250565b5f61208c600f83611843565b915061209782612058565b602082019050919050565b5f6020820190508181035f8301526120b981612080565b905091905056fea2646970667358221220655f6901a0fac3d4dd047277cc52c37289e512fa60e17c4bfd90827e2d264b5f64736f6c63430008140033","linkReferences":{}},"methodIdentifiers":{"owner()":"8da5cb5b","rescue(address,uint256)":"7a4e4ecf","setRouter(address,bool)":"c3c64674","setRouters(address[],bool[])":"597a9743","sweep(address[],uint256[],address[],bytes[])":"257a164f","transferOwnership(address)":"f2fde38b","weth()":"3fc8cef3","whitelistedRouters(address)":"0f874a13"},"id":0}