{"abi":[{"type":"constructor","inputs":[{"name":"_weth","type":"address","internalType":"address"}],"stateMutability":"nonpayable"},{"type":"receive","stateMutability":"payable"},{"type":"function","name":"sweep","inputs":[{"name":"tokens","type":"address[]","internalType":"address[]"},{"name":"amounts","type":"uint256[]","internalType":"uint256[]"},{"name":"routers","type":"address[]","internalType":"address[]"},{"name":"swapDatas","type":"bytes[]","internalType":"bytes[]"}],"outputs":[],"stateMutability":"nonpayable"},{"type":"function","name":"weth","inputs":[],"outputs":[{"name":"","type":"address","internalType":"address"}],"stateMutability":"view"}],"bytecode":{"object":"0x60a060405234801561000f575f80fd5b50604051610dd2380380610dd2833981810160405281019061003191906100c9565b8073ffffffffffffffffffffffffffffffffffffffff1660808173ffffffffffffffffffffffffffffffffffffffff1681525050506100f4565b5f80fd5b5f73ffffffffffffffffffffffffffffffffffffffff82169050919050565b5f6100988261006f565b9050919050565b6100a88161008e565b81146100b2575f80fd5b50565b5f815190506100c38161009f565b92915050565b5f602082840312156100de576100dd61006b565b5b5f6100eb848285016100b5565b91505092915050565b608051610cb861011a5f395f81816103ad0152818161044f01526105980152610cb85ff3fe60806040526004361061002c575f3560e01c8063257a164f146100375780633fc8cef31461005f57610033565b3661003357005b5f80fd5b348015610042575f80fd5b5061005d600480360381019061005891906106cd565b610089565b005b34801561006a575f80fd5b50610073610596565b60405161008091906107f0565b60405180910390f35b85859050888890501480156100a357508383905086869050145b80156100b457508181905084849050145b6100f3576040517f08c379a00000000000000000000000000000000000000000000000000000000081526004016100ea90610863565b60405180910390fd5b5f5b888890508110156103a95788888281811061011357610112610881565b5b905060200201602081019061012891906108d8565b73ffffffffffffffffffffffffffffffffffffffff166323b872dd33308a8a8681811061015857610157610881565b5b905060200201356040518463ffffffff1660e01b815260040161017d9392919061091b565b6020604051808303815f875af1158015610199573d5f803e3d5ffd5b505050506040513d601f19601f820116820180604052508101906101bd9190610985565b508888828181106101d1576101d0610881565b5b90506020020160208101906101e691906108d8565b73ffffffffffffffffffffffffffffffffffffffff1663095ea7b386868481811061021457610213610881565b5b905060200201602081019061022991906108d8565b89898581811061023c5761023b610881565b5b905060200201356040518363ffffffff1660e01b81526004016102609291906109b0565b6020604051808303815f875af115801561027c573d5f803e3d5ffd5b505050506040513d601f19601f820116820180604052508101906102a09190610985565b505f8585838181106102b5576102b4610881565b5b90506020020160208101906102ca91906108d8565b73ffffffffffffffffffffffffffffffffffffffff168484848181106102f3576102f2610881565b5b905060200281019061030591906109e3565b604051610313929190610a81565b5f604051808303815f865af19150503d805f811461034c576040519150601f19603f3d011682016040523d82523d5f602084013e610351565b606091505b5050905080610395576040517f08c379a000000000000000000000000000000000000000000000000000000000815260040161038c90610ae3565b60405180910390fd5b5080806103a190610b2e565b9150506100f5565b505f7f000000000000000000000000000000000000000000000000000000000000000073ffffffffffffffffffffffffffffffffffffffff166370a08231306040518263ffffffff1660e01b815260040161040491906107f0565b602060405180830381865afa15801561041f573d5f803e3d5ffd5b505050506040513d601f19601f820116820180604052508101906104439190610b9f565b90505f8111156104d4577f000000000000000000000000000000000000000000000000000000000000000073ffffffffffffffffffffffffffffffffffffffff16632e1a7d4d826040518263ffffffff1660e01b81526004016104a69190610bca565b5f604051808303815f87803b1580156104bd575f80fd5b505af11580156104cf573d5f803e3d5ffd5b505050505b5f4790505f81111561058a575f3373ffffffffffffffffffffffffffffffffffffffff168260405161050590610c06565b5f6040518083038185875af1925050503d805f811461053f576040519150601f19603f3d011682016040523d82523d5f602084013e610544565b606091505b5050905080610588576040517f08c379a000000000000000000000000000000000000000000000000000000000815260040161057f90610c64565b60405180910390fd5b505b50505050505050505050565b7f000000000000000000000000000000000000000000000000000000000000000081565b5f80fd5b5f80fd5b5f80fd5b5f80fd5b5f80fd5b5f8083601f8401126105e3576105e26105c2565b5b8235905067ffffffffffffffff811115610600576105ff6105c6565b5b60208301915083602082028301111561061c5761061b6105ca565b5b9250929050565b5f8083601f840112610638576106376105c2565b5b8235905067ffffffffffffffff811115610655576106546105c6565b5b602083019150836020820283011115610671576106706105ca565b5b9250929050565b5f8083601f84011261068d5761068c6105c2565b5b8235905067ffffffffffffffff8111156106aa576106a96105c6565b5b6020830191508360208202830111156106c6576106c56105ca565b5b9250929050565b5f805f805f805f806080898b0312156106e9576106e86105ba565b5b5f89013567ffffffffffffffff811115610706576107056105be565b5b6107128b828c016105ce565b9850985050602089013567ffffffffffffffff811115610735576107346105be565b5b6107418b828c01610623565b9650965050604089013567ffffffffffffffff811115610764576107636105be565b5b6107708b828c016105ce565b9450945050606089013567ffffffffffffffff811115610793576107926105be565b5b61079f8b828c01610678565b92509250509295985092959890939650565b5f73ffffffffffffffffffffffffffffffffffffffff82169050919050565b5f6107da826107b1565b9050919050565b6107ea816107d0565b82525050565b5f6020820190506108035f8301846107e1565b92915050565b5f82825260208201905092915050565b7f6c656e677468206d69736d6174636800000000000000000000000000000000005f82015250565b5f61084d600f83610809565b915061085882610819565b602082019050919050565b5f6020820190508181035f83015261087a81610841565b9050919050565b7f4e487b71000000000000000000000000000000000000000000000000000000005f52603260045260245ffd5b6108b7816107d0565b81146108c1575f80fd5b50565b5f813590506108d2816108ae565b92915050565b5f602082840312156108ed576108ec6105ba565b5b5f6108fa848285016108c4565b91505092915050565b5f819050919050565b61091581610903565b82525050565b5f60608201905061092e5f8301866107e1565b61093b60208301856107e1565b610948604083018461090c565b949350505050565b5f8115159050919050565b61096481610950565b811461096e575f80fd5b50565b5f8151905061097f8161095b565b92915050565b5f6020828403121561099a576109996105ba565b5b5f6109a784828501610971565b91505092915050565b5f6040820190506109c35f8301856107e1565b6109d0602083018461090c565b9392505050565b5f80fd5b5f80fd5b5f80fd5b5f80833560016020038436030381126109ff576109fe6109d7565b5b80840192508235915067ffffffffffffffff821115610a2157610a206109db565b5b602083019250600182023603831315610a3d57610a3c6109df565b5b509250929050565b5f81905092915050565b828183375f83830152505050565b5f610a688385610a45565b9350610a75838584610a4f565b82840190509392505050565b5f610a8d828486610a5d565b91508190509392505050565b7f73776170206661696c65640000000000000000000000000000000000000000005f82015250565b5f610acd600b83610809565b9150610ad882610a99565b602082019050919050565b5f6020820190508181035f830152610afa81610ac1565b9050919050565b7f4e487b71000000000000000000000000000000000000000000000000000000005f52601160045260245ffd5b5f610b3882610903565b91507fffffffffffffffffffffffffffffffffffffffffffffffffffffffffffffffff8203610b6a57610b69610b01565b5b600182019050919050565b610b7e81610903565b8114610b88575f80fd5b50565b5f81519050610b9981610b75565b92915050565b5f60208284031215610bb457610bb36105ba565b5b5f610bc184828501610b8b565b91505092915050565b5f602082019050610bdd5f83018461090c565b92915050565b50565b5f610bf15f83610a45565b9150610bfc82610be3565b5f82019050919050565b5f610c1082610be6565b9150819050919050565b7f455448207472616e73666572206661696c6564000000000000000000000000005f82015250565b5f610c4e601383610809565b9150610c5982610c1a565b602082019050919050565b5f6020820190508181035f830152610c7b81610c42565b905091905056fea2646970667358221220339cebd34110ec44971d856980a108da126175cb74575dd6b5763cba22abbac964736f6c63430008140033","linkReferences":{}},"methodIdentifiers":{"sweep(address[],uint256[],address[],bytes[])":"257a164f","weth()":"3fc8cef3"},"id":0}